{
    "_format": "hh-sol-artifact-1",
    "contractName": "View",
    "sourceName": "contracts/support/View.sol",
    "abi": [
        {
            "inputs": [
                {
                    "internalType": "address",
                    "name": "token",
                    "type": "address"
                },
                {
                    "internalType": "address",
                    "name": "feeTo",
                    "type": "address"
                },
                {
                    "internalType": "uint256",
                    "name": "feeRate",
                    "type": "uint256"
                }
            ],
            "stateMutability": "nonpayable",
            "type": "constructor"
        },
        {
            "inputs": [],
            "name": "T",
            "type": "error"
        },
        {
            "anonymous": false,
            "inputs": [
                {
                    "indexed": true,
                    "internalType": "address",
                    "name": "payer",
                    "type": "address"
                },
                {
                    "indexed": true,
                    "internalType": "address",
                    "name": "recipient",
                    "type": "address"
                },
                {
                    "indexed": true,
                    "internalType": "address",
                    "name": "index",
                    "type": "address"
                },
                {
                    "indexed": false,
                    "internalType": "uint256",
                    "name": "id",
                    "type": "uint256"
                },
                {
                    "indexed": false,
                    "internalType": "uint256",
                    "name": "amount",
                    "type": "uint256"
                },
                {
                    "indexed": false,
                    "internalType": "uint256",
                    "name": "maturity",
                    "type": "uint256"
                },
                {
                    "indexed": false,
                    "internalType": "uint256",
                    "name": "indexPrice",
                    "type": "uint256"
                },
                {
                    "indexed": false,
                    "internalType": "uint256",
                    "name": "valueR",
                    "type": "uint256"
                }
            ],
            "name": "Position",
            "type": "event"
        },
        {
            "inputs": [
                {
                    "internalType": "address",
                    "name": "TOKEN",
                    "type": "address"
                },
                {
                    "internalType": "uint256",
                    "name": "FEE_RATE",
                    "type": "uint256"
                },
                {
                    "internalType": "uint256",
                    "name": "twap",
                    "type": "uint256"
                },
                {
                    "internalType": "uint256",
                    "name": "spot",
                    "type": "uint256"
                }
            ],
            "name": "compute",
            "outputs": [
                {
                    "components": [
                        {
                            "components": [
                                {
                                    "internalType": "address",
                                    "name": "FETCHER",
                                    "type": "address"
                                },
                                {
                                    "internalType": "bytes32",
                                    "name": "ORACLE",
                                    "type": "bytes32"
                                },
                                {
                                    "internalType": "address",
                                    "name": "TOKEN_R",
                                    "type": "address"
                                },
                                {
                                    "internalType": "uint256",
                                    "name": "K",
                                    "type": "uint256"
                                },
                                {
                                    "internalType": "uint256",
                                    "name": "MARK",
                                    "type": "uint256"
                                },
                                {
                                    "internalType": "uint256",
                                    "name": "INTEREST_HL",
                                    "type": "uint256"
                                },
                                {
                                    "internalType": "uint256",
                                    "name": "PREMIUM_HL",
                                    "type": "uint256"
                                },
                                {
                                    "internalType": "uint256",
                                    "name": "MATURITY",
                                    "type": "uint256"
                                },
                                {
                                    "internalType": "uint256",
                                    "name": "MATURITY_VEST",
                                    "type": "uint256"
                                },
                                {
                                    "internalType": "uint256",
                                    "name": "MATURITY_RATE",
                                    "type": "uint256"
                                },
                                {
                                    "internalType": "uint256",
                                    "name": "OPEN_RATE",
                                    "type": "uint256"
                                }
                            ],
                            "internalType": "struct Config",
                            "name": "config",
                            "type": "tuple"
                        },
                        {
                            "components": [
                                {
                                    "internalType": "uint256",
                                    "name": "R",
                                    "type": "uint256"
                                },
                                {
                                    "internalType": "uint256",
                                    "name": "a",
                                    "type": "uint256"
                                },
                                {
                                    "internalType": "uint256",
                                    "name": "b",
                                    "type": "uint256"
                                }
                            ],
                            "internalType": "struct State",
                            "name": "state",
                            "type": "tuple"
                        },
                        {
                            "internalType": "uint256",
                            "name": "sA",
                            "type": "uint256"
                        },
                        {
                            "internalType": "uint256",
                            "name": "sB",
                            "type": "uint256"
                        },
                        {
                            "internalType": "uint256",
                            "name": "sC",
                            "type": "uint256"
                        },
                        {
                            "internalType": "uint256",
                            "name": "rA",
                            "type": "uint256"
                        },
                        {
                            "internalType": "uint256",
                            "name": "rB",
                            "type": "uint256"
                        },
                        {
                            "internalType": "uint256",
                            "name": "rC",
                            "type": "uint256"
                        },
                        {
                            "internalType": "uint256",
                            "name": "twap",
                            "type": "uint256"
                        },
                        {
                            "internalType": "uint256",
                            "name": "spot",
                            "type": "uint256"
                        }
                    ],
                    "internalType": "struct View.StateView",
                    "name": "stateView",
                    "type": "tuple"
                }
            ],
            "stateMutability": "nonpayable",
            "type": "function"
        },
        {
            "inputs": [],
            "name": "ensureStateIntegrity",
            "outputs": [],
            "stateMutability": "view",
            "type": "function"
        },
        {
            "inputs": [
                {
                    "internalType": "uint256",
                    "name": "ORACLE",
                    "type": "uint256"
                }
            ],
            "name": "fetch",
            "outputs": [
                {
                    "internalType": "uint256",
                    "name": "twap",
                    "type": "uint256"
                },
                {
                    "internalType": "uint256",
                    "name": "spot",
                    "type": "uint256"
                }
            ],
            "stateMutability": "view",
            "type": "function"
        },
        {
            "inputs": [],
            "name": "getStates",
            "outputs": [
                {
                    "internalType": "uint256",
                    "name": "R",
                    "type": "uint256"
                },
                {
                    "internalType": "uint256",
                    "name": "a",
                    "type": "uint256"
                },
                {
                    "internalType": "uint256",
                    "name": "b",
                    "type": "uint256"
                },
                {
                    "internalType": "uint32",
                    "name": "i",
                    "type": "uint32"
                },
                {
                    "internalType": "uint32",
                    "name": "f",
                    "type": "uint32"
                }
            ],
            "stateMutability": "view",
            "type": "function"
        },
        {
            "inputs": [
                {
                    "components": [
                        {
                            "internalType": "uint256",
                            "name": "R",
                            "type": "uint256"
                        },
                        {
                            "internalType": "uint256",
                            "name": "a",
                            "type": "uint256"
                        },
                        {
                            "internalType": "uint256",
                            "name": "b",
                            "type": "uint256"
                        }
                    ],
                    "internalType": "struct State",
                    "name": "state",
                    "type": "tuple"
                },
                {
                    "components": [
                        {
                            "internalType": "address",
                            "name": "utr",
                            "type": "address"
                        },
                        {
                            "internalType": "bytes",
                            "name": "payer",
                            "type": "bytes"
                        },
                        {
                            "internalType": "address",
                            "name": "recipient",
                            "type": "address"
                        }
                    ],
                    "internalType": "struct Payment",
                    "name": "payment",
                    "type": "tuple"
                }
            ],
            "name": "init",
            "outputs": [],
            "stateMutability": "nonpayable",
            "type": "function"
        },
        {
            "inputs": [],
            "name": "loadConfig",
            "outputs": [
                {
                    "components": [
                        {
                            "internalType": "address",
                            "name": "FETCHER",
                            "type": "address"
                        },
                        {
                            "internalType": "bytes32",
                            "name": "ORACLE",
                            "type": "bytes32"
                        },
                        {
                            "internalType": "address",
                            "name": "TOKEN_R",
                            "type": "address"
                        },
                        {
                            "internalType": "uint256",
                            "name": "K",
                            "type": "uint256"
                        },
                        {
                            "internalType": "uint256",
                            "name": "MARK",
                            "type": "uint256"
                        },
                        {
                            "internalType": "uint256",
                            "name": "INTEREST_HL",
                            "type": "uint256"
                        },
                        {
                            "internalType": "uint256",
                            "name": "PREMIUM_HL",
                            "type": "uint256"
                        },
                        {
                            "internalType": "uint256",
                            "name": "MATURITY",
                            "type": "uint256"
                        },
                        {
                            "internalType": "uint256",
                            "name": "MATURITY_VEST",
                            "type": "uint256"
                        },
                        {
                            "internalType": "uint256",
                            "name": "MATURITY_RATE",
                            "type": "uint256"
                        },
                        {
                            "internalType": "uint256",
                            "name": "OPEN_RATE",
                            "type": "uint256"
                        }
                    ],
                    "internalType": "struct Config",
                    "name": "config",
                    "type": "tuple"
                }
            ],
            "stateMutability": "pure",
            "type": "function"
        },
        {
            "inputs": [
                {
                    "internalType": "address",
                    "name": "",
                    "type": "address"
                },
                {
                    "internalType": "address",
                    "name": "",
                    "type": "address"
                },
                {
                    "internalType": "uint256[]",
                    "name": "",
                    "type": "uint256[]"
                },
                {
                    "internalType": "uint256[]",
                    "name": "",
                    "type": "uint256[]"
                },
                {
                    "internalType": "bytes",
                    "name": "",
                    "type": "bytes"
                }
            ],
            "name": "onERC1155BatchReceived",
            "outputs": [
                {
                    "internalType": "bytes4",
                    "name": "",
                    "type": "bytes4"
                }
            ],
            "stateMutability": "nonpayable",
            "type": "function"
        },
        {
            "inputs": [
                {
                    "internalType": "address",
                    "name": "",
                    "type": "address"
                },
                {
                    "internalType": "address",
                    "name": "",
                    "type": "address"
                },
                {
                    "internalType": "uint256",
                    "name": "",
                    "type": "uint256"
                },
                {
                    "internalType": "uint256",
                    "name": "",
                    "type": "uint256"
                },
                {
                    "internalType": "bytes",
                    "name": "",
                    "type": "bytes"
                }
            ],
            "name": "onERC1155Received",
            "outputs": [
                {
                    "internalType": "bytes4",
                    "name": "",
                    "type": "bytes4"
                }
            ],
            "stateMutability": "nonpayable",
            "type": "function"
        },
        {
            "inputs": [
                {
                    "internalType": "bytes4",
                    "name": "interfaceId",
                    "type": "bytes4"
                }
            ],
            "name": "supportsInterface",
            "outputs": [
                {
                    "internalType": "bool",
                    "name": "",
                    "type": "bool"
                }
            ],
            "stateMutability": "view",
            "type": "function"
        },
        {
            "inputs": [
                {
                    "components": [
                        {
                            "internalType": "uint256",
                            "name": "sideIn",
                            "type": "uint256"
                        },
                        {
                            "internalType": "uint256",
                            "name": "sideOut",
                            "type": "uint256"
                        },
                        {
                            "internalType": "address",
                            "name": "helper",
                            "type": "address"
                        },
                        {
                            "internalType": "bytes",
                            "name": "payload",
                            "type": "bytes"
                        }
                    ],
                    "internalType": "struct Param",
                    "name": "param",
                    "type": "tuple"
                },
                {
                    "components": [
                        {
                            "internalType": "address",
                            "name": "utr",
                            "type": "address"
                        },
                        {
                            "internalType": "bytes",
                            "name": "payer",
                            "type": "bytes"
                        },
                        {
                            "internalType": "address",
                            "name": "recipient",
                            "type": "address"
                        }
                    ],
                    "internalType": "struct Payment",
                    "name": "payment",
                    "type": "tuple"
                }
            ],
            "name": "swap",
            "outputs": [
                {
                    "internalType": "uint256",
                    "name": "amountIn",
                    "type": "uint256"
                },
                {
                    "internalType": "uint256",
                    "name": "amountOut",
                    "type": "uint256"
                },
                {
                    "internalType": "uint256",
                    "name": "price",
                    "type": "uint256"
                }
            ],
            "stateMutability": "nonpayable",
            "type": "function"
        }
    ],
    "bytecode": "0x60e06040523480156200001157600080fd5b5060405162005c3c38038062005c3c83398101604081905262000034916200012b565b828282826001600160a01b038116620000945760405162461bcd60e51b815260206004820152601660248201527f506f6f6c426173653a205a45524f5f414444524553530000000000000000000060448201526064015b60405180910390fd5b6001600160a01b039081166080528216620000f25760405162461bcd60e51b815260206004820152601760248201527f506f6f6c4c6f6769633a205a45524f5f4144445245535300000000000000000060448201526064016200008b565b6001600160a01b0390911660a05260c052506200016c92505050565b80516001600160a01b03811681146200012657600080fd5b919050565b6000806000606084860312156200014157600080fd5b6200014c846200010e565b92506200015c602085016200010e565b9150604084015190509250925092565b60805160a05160c051615a45620001f7600039600081816123ca01526123f20152600061243c01526000818161075201528181610815015281816108d8015281816109fb01528181610b1d01528181610bdc01528181610c8801528181610d4701528181610f17015281816118440152818161191c015281816119f40152613e700152615a456000f3fe608060405234801561001057600080fd5b50600436106100be5760003560e01c8063d8ab827411610076578063eb7e50dd1161005b578063eb7e50dd1461020d578063ed57620414610215578063f23a6e611461023557600080fd5b8063d8ab8274146101bf578063dc1a6f33146101f857600080fd5b80632b2f2913116100a75780632b2f2913146101005780637a33e3b01461012e578063bc197c811461015657600080fd5b806301ffc9a7146100c357806322d65951146100eb575b600080fd5b6100d66100d1366004614ca1565b61026d565b60405190151581526020015b60405180910390f35b6100f36102c9565b6040516100e29190614d83565b61011361010e366004614f9e565b610398565b604080519384526020840192909252908201526060016100e2565b61014161013c366004615057565b611045565b604080519283526020830191909152016100e2565b61018e6101643660046150ff565b7fbc197c810000000000000000000000000000000000000000000000000000000095945050505050565b6040517fffffffff0000000000000000000000000000000000000000000000000000000090911681526020016100e2565b6101c7611125565b6040805195865260208601949094529284019190915263ffffffff908116606084015216608082015260a0016100e2565b61020b6102063660046151ad565b61121b565b005b61020b611cec565b61022861022336600461521a565b611d6f565b6040516100e29190615255565b61018e6102433660046152ea565b7ff23a6e610000000000000000000000000000000000000000000000000000000095945050505050565b60007f61206120000000000000000000000000000000000000000000000000000000007fffffffff00000000000000000000000000000000000000000000000000000000831614806102c357506102c382611f2c565b92915050565b610355604051806101600160405280600073ffffffffffffffffffffffffffffffffffffffff16815260200160008019168152602001600073ffffffffffffffffffffffffffffffffffffffff16815260200160008152602001600081526020016000815260200160008152602001600081526020016000815260200160008152602001600081525090565b6060602036038035808203915060405192506020810183016040528083526020830181838237505050808060200190518101906103929190615363565b91505090565b60008060006103a5611cec565b600180547fffffffffffffffffffffffffffffffffffffffffffffffffffffffff00000000811663ffffffff909116178117905560006103e36102c9565b905060006103f18288611fc3565b8051602082015160408301518a51929850909650945090915060009061070057602087015151156106e95761042b87602001516000612c55565b90508660200151516014036104b357604080840151815173ffffffffffffffffffffffffffffffffffffffff808516602083015230938201939093526014606082015291166080820152600060a082015260c001604080517fffffffffffffffffffffffffffffffffffffffffffffffffffffffffffffffe081840301815291905260208801525b60408084015190517f70a0823100000000000000000000000000000000000000000000000000000000815230600482015260009173ffffffffffffffffffffffffffffffffffffffff16906370a0823190602401602060405180830381865afa158015610524573d6000803e3d6000fd5b505050506040513d601f19601f820116820180604052508101906105489190615404565b610552908861544c565b885160208a01516040517f715ef7f900000000000000000000000000000000000000000000000000000000815292935073ffffffffffffffffffffffffffffffffffffffff9091169163715ef7f9916105af918b906004016154cd565b600060405180830381600087803b1580156105c957600080fd5b505af11580156105dd573d6000803e3d6000fd5b50505060408086015190517f70a0823100000000000000000000000000000000000000000000000000000000815230600482015273ffffffffffffffffffffffffffffffffffffffff90911691506370a0823190602401602060405180830381865afa158015610651573d6000803e3d6000fd5b505050506040513d601f19601f820116820180604052508101906106759190615404565b8111156106e3576040517f08c379a000000000000000000000000000000000000000000000000000000000815260206004820152601e60248201527f506f6f6c426173653a20494e53554646494349454e545f5041594d454e54000060448201526064015b60405180910390fd5b50610e59565b6106f98360400151333089612ce5565b5033610e59565b875160009060a01b301790506000808960200151511115610c53576040517efdd58e000000000000000000000000000000000000000000000000000000008152306004820152602481018390526000907f000000000000000000000000000000000000000000000000000000000000000073ffffffffffffffffffffffffffffffffffffffff169062fdd58e90604401602060405180830381865afa1580156107ad573d6000803e3d6000fd5b505050506040513d601f19601f820116820180604052508101906107d19190615404565b90508015610887576040517ff5298aca00000000000000000000000000000000000000000000000000000000815230600482015260248101849052604481018290527f000000000000000000000000000000000000000000000000000000000000000073ffffffffffffffffffffffffffffffffffffffff169063f5298aca90606401600060405180830381600087803b15801561086e57600080fd5b505af1158015610882573d6000803e3d6000fd5b505050505b6108968a602001516000612c55565b935089602001515160140361093d576040805173ffffffffffffffffffffffffffffffffffffffff8681166020830152309282019290925261048360608201527f0000000000000000000000000000000000000000000000000000000000000000909116608082015260a0810184905260c001604080517fffffffffffffffffffffffffffffffffffffffffffffffffffffffffffffffe081840301815291905260208b01525b895160208b01516040517f715ef7f900000000000000000000000000000000000000000000000000000000815273ffffffffffffffffffffffffffffffffffffffff9092169163715ef7f991610997918d906004016154cd565b600060405180830381600087803b1580156109b157600080fd5b505af11580156109c5573d6000803e3d6000fd5b50506040517efdd58e000000000000000000000000000000000000000000000000000000008152306004820152602481018690527f000000000000000000000000000000000000000000000000000000000000000073ffffffffffffffffffffffffffffffffffffffff16925062fdd58e9150604401602060405180830381865afa158015610a58573d6000803e3d6000fd5b505050506040513d601f19601f82011682018060405250810190610a7c9190615404565b905080891115610ae8576040517f08c379a000000000000000000000000000000000000000000000000000000000815260206004820152601e60248201527f506f6f6c426173653a20494e53554646494349454e545f5041594d454e54000060448201526064016106da565b6040517fcb263dc6000000000000000000000000000000000000000000000000000000008152306004820152602481018490527f000000000000000000000000000000000000000000000000000000000000000073ffffffffffffffffffffffffffffffffffffffff169063cb263dc690604401602060405180830381865afa158015610b79573d6000803e3d6000fd5b505050506040513d601f19601f82011682018060405250810190610b9d9190615404565b6040517ff5298aca00000000000000000000000000000000000000000000000000000000815230600482015260248101859052604481018390529092507f000000000000000000000000000000000000000000000000000000000000000073ffffffffffffffffffffffffffffffffffffffff169063f5298aca90606401600060405180830381600087803b158015610c3557600080fd5b505af1158015610c49573d6000803e3d6000fd5b5050505050610dbc565b6040517fcb263dc6000000000000000000000000000000000000000000000000000000008152336004820152602481018390527f000000000000000000000000000000000000000000000000000000000000000073ffffffffffffffffffffffffffffffffffffffff169063cb263dc690604401602060405180830381865afa158015610ce4573d6000803e3d6000fd5b505050506040513d601f19601f82011682018060405250810190610d089190615404565b6040517ff5298aca00000000000000000000000000000000000000000000000000000000815233600482015260248101849052604481018a90529091507f000000000000000000000000000000000000000000000000000000000000000073ffffffffffffffffffffffffffffffffffffffff169063f5298aca90606401600060405180830381600087803b158015610da057600080fd5b505af1158015610db4573d6000803e3d6000fd5b505050503392505b6000808b6020015114610dd0576000610dd2565b875b602080880151604080518781529283018d90528201859052606082018a90526080820183905291925073ffffffffffffffffffffffffffffffffffffffff91821691600091908716907fba5c330f8eb505cee9b4eb08fecf34234a327cfb6f9e480f9d3b4dfae5b23e4d9060a00160405180910390a4610e5386838a612e84565b97505050505b6020880151600090610e7d57610e788460400151896040015188612f0c565b611005565b602089015160009060a01b301790508460e001514263ffffffff16610ea2919061544c565b60408a81015190517f3c8cb4ef00000000000000000000000000000000000000000000000000000000815273ffffffffffffffffffffffffffffffffffffffff918216600482015260248101849052604481018a905263ffffffff8316606482015260a06084820152600060a48201529193507f00000000000000000000000000000000000000000000000000000000000000001690633c8cb4ef9060c401600060405180830381600087803b158015610f5b57600080fd5b505af1158015610f6f573d6000803e3d6000fd5b50508b5160009250159050610f85576000610f87565b885b6020808801516040808e015181518781529384018d9052908301879052606083018b90526080830184905292935073ffffffffffffffffffffffffffffffffffffffff90811692811691908716907fba5c330f8eb505cee9b4eb08fecf34234a327cfb6f9e480f9d3b4dfae5b23e4d9060a00160405180910390a450505b5050600180547fffffffffffffffffffffffffffffffffffffffffffffffffffffffff00000000811663fffffffe90911617905550929591945092509050565b6000808281611053826130a2565b905060006110658360c088901c613184565b509050600061107382613448565b73ffffffffffffffffffffffffffffffffffffffff169050602083901b9450602081901b95507f8000000000000000000000000000000000000000000000000000000000000000871660000361111c576110ed857fffffffffffffffffffffffffffffffffffffffffffffffffffffffffffffffff61551e565b9450611119867fffffffffffffffffffffffffffffffffffffffffffffffffffffffffffffffff61551e565b95505b50505050915091565b6000806000806000806111366102c9565b60408082015190517f70a0823100000000000000000000000000000000000000000000000000000000815230600482015291925073ffffffffffffffffffffffffffffffffffffffff16906370a0823190602401602060405180830381865afa1580156111a7573d6000803e3d6000fd5b505050506040513d601f19601f820116820180604052508101906111cb9190615404565b60005460015491987bffffffffffffffffffffffffffffffffffffffffffffffffffffffff64010000000080840482169a50840416975063ffffffff909116955063fffffffe9091169350915050565b60005463ffffffff161561128b576040517f08c379a000000000000000000000000000000000000000000000000000000000815260206004820152601d60248201527f506f6f6c426173653a20414c52454144595f494e495449414c495a454400000060448201526064016106da565b81516020830151604084015182158015906112a65750600082115b80156112b25750600081115b611318576040517f08c379a000000000000000000000000000000000000000000000000000000000815260206004820152601460248201527f506f6f6c426173653a205a45524f5f504152414d00000000000000000000000060448201526064016106da565b4263ffffffff81166401000000007bffffffffffffffffffffffffffffffffffffffffffffffffffffffff858116820292909217600090815563fffffffe90931691841602176001556113696102c9565b905060008086602001515111156116415760408083015190517f70a0823100000000000000000000000000000000000000000000000000000000815230600482015260009173ffffffffffffffffffffffffffffffffffffffff16906370a0823190602401602060405180830381865afa1580156113eb573d6000803e3d6000fd5b505050506040513d601f19601f8201168201806040525081019061140f9190615404565b611419908761544c565b905061142a87602001516000612c55565b91508660200151516014036114b257604080840151815173ffffffffffffffffffffffffffffffffffffffff808616602083015230938201939093526014606082015291166080820152600060a082015260c001604080517fffffffffffffffffffffffffffffffffffffffffffffffffffffffffffffffe081840301815291905260208801525b865160208801516040517f715ef7f900000000000000000000000000000000000000000000000000000000815273ffffffffffffffffffffffffffffffffffffffff9092169163715ef7f99161150c918a906004016154cd565b600060405180830381600087803b15801561152657600080fd5b505af115801561153a573d6000803e3d6000fd5b50505060408085015190517f70a0823100000000000000000000000000000000000000000000000000000000815230600482015273ffffffffffffffffffffffffffffffffffffffff90911691506370a0823190602401602060405180830381865afa1580156115ae573d6000803e3d6000fd5b505050506040513d601f19601f820116820180604052508101906115d29190615404565b81111561163b576040517f08c379a000000000000000000000000000000000000000000000000000000000815260206004820152601e60248201527f506f6f6c426173653a20494e53554646494349454e545f5041594d454e54000060448201526064016106da565b50611654565b6116518260400151333088612ce5565b50335b8151602083015130741000000000000000000000000000000000000000008117927420000000000000000000000000000000000000000082179274300000000000000000000000000000000000000000909217916000916116b4916137af565b5090506000806116cd6116c78985613876565b8e61390b565b915091506103e882101561173d576040517f08c379a000000000000000000000000000000000000000000000000000000000815260206004820152601b60248201527f506f6f6c426173653a204d494e494d554d5f524553455256455f41000000000060448201526064016106da565b6103e88110156117a9576040517f08c379a000000000000000000000000000000000000000000000000000000000815260206004820152601b60248201527f506f6f6c426173653a204d494e494d554d5f524553455256455f42000000000060448201526064016106da565b6000816117b6848e615532565b6117c09190615532565b90506103e881101561182e576040517f08c379a000000000000000000000000000000000000000000000000000000000815260206004820152601b60248201527f506f6f6c426173653a204d494e494d554d5f524553455256455f43000000000060448201526064016106da565b60008960e0015142611840919061544c565b90507f000000000000000000000000000000000000000000000000000000000000000073ffffffffffffffffffffffffffffffffffffffff16633c8cb4ef8f604001518a87856040518563ffffffff1660e01b81526004016118e8949392919073ffffffffffffffffffffffffffffffffffffffff9490941684526020840192909252604083015263ffffffff16606082015260a06080820181905260009082015260c00190565b600060405180830381600087803b15801561190257600080fd5b505af1158015611916573d6000803e3d6000fd5b505050507f000000000000000000000000000000000000000000000000000000000000000073ffffffffffffffffffffffffffffffffffffffff16633c8cb4ef8f604001518986856040518563ffffffff1660e01b81526004016119c0949392919073ffffffffffffffffffffffffffffffffffffffff9490941684526020840192909252604083015263ffffffff16606082015260a06080820181905260009082015260c00190565b600060405180830381600087803b1580156119da57600080fd5b505af11580156119ee573d6000803e3d6000fd5b505050507f000000000000000000000000000000000000000000000000000000000000000073ffffffffffffffffffffffffffffffffffffffff16633c8cb4ef8f604001518885856040518563ffffffff1660e01b8152600401611a98949392919073ffffffffffffffffffffffffffffffffffffffff9490941684526020840192909252604083015263ffffffff16606082015260a06080820181905260009082015260c00190565b600060405180830381600087803b158015611ab257600080fd5b505af1158015611ac6573d6000803e3d6000fd5b5050505060008a6020015160001c90508073ffffffffffffffffffffffffffffffffffffffff168f6040015173ffffffffffffffffffffffffffffffffffffffff168b73ffffffffffffffffffffffffffffffffffffffff167fba5c330f8eb505cee9b4eb08fecf34234a327cfb6f9e480f9d3b4dfae5b23e4d8c89878c8c604051611b7a959493929190948552602085019390935263ffffffff9190911660408401526060830152608082015260a00190565b60405180910390a48073ffffffffffffffffffffffffffffffffffffffff168f6040015173ffffffffffffffffffffffffffffffffffffffff168b73ffffffffffffffffffffffffffffffffffffffff167fba5c330f8eb505cee9b4eb08fecf34234a327cfb6f9e480f9d3b4dfae5b23e4d8b88878c8b604051611c26959493929190948552602085019390935263ffffffff9190911660408401526060830152608082015260a00190565b60405180910390a48073ffffffffffffffffffffffffffffffffffffffff168f6040015173ffffffffffffffffffffffffffffffffffffffff168b73ffffffffffffffffffffffffffffffffffffffff167fba5c330f8eb505cee9b4eb08fecf34234a327cfb6f9e480f9d3b4dfae5b23e4d8a87878c8a604051611cd2959493929190948552602085019390935263ffffffff9190911660408401526060830152608082015260a00190565b60405180910390a450505050505050505050505050505050565b6001805463ffffffff81169116158015611d065750600081115b611d6c576040517f08c379a000000000000000000000000000000000000000000000000000000000815260206004820152601960248201527f506f6f6c426173653a2053544154455f494e544547524954590000000000000060448201526064016106da565b50565b611d77614ba2565b6000611d816102c9565b905060006040518060600160405280611d9d8460400151613965565b81526000547bffffffffffffffffffffffffffffffffffffffffffffffffffffffff64010000000091829004811660208401526001549190910416604090910152905084158015611dec575083155b15611e085781516020830151611e0291906137af565b90955093505b600080611e1e611e188589613876565b8461390b565b91509150600080611e38611e32878a613876565b8661390b565b915091506000611e4f8b88886000015188886139f7565b88519197509550909150611e68908c90899086866139f7565b91885293509150611e798584613c1a565b60a0890152611e888483613c1a565b60c0890152611ec384611e9b8784615532565b611ea59190615532565b87518490611eb4908790615532565b611ebe9190615532565b613c1a565b60e08901528551811015611ed5578086525b611ee08c6010613c30565b6040890152611ef08c6020613c30565b6060890152611f008c6030613c30565b608089015250505050610100840195909552610120830193909352815260208101919091529392505050565b60007fffffffff0000000000000000000000000000000000000000000000000000000082167f4e2312e00000000000000000000000000000000000000000000000000000000014806102c357507f01ffc9a7000000000000000000000000000000000000000000000000000000007fffffffff000000000000000000000000000000000000000000000000000000008316146102c3565b611fe760405180606001604052806000815260200160008152602001600081525090565b81516020830151808203612057576040517f08c379a000000000000000000000000000000000000000000000000000000000815260206004820152601460248201527f506f6f6c4c6f6769633a2053414d455f5349444500000000000000000000000060448201526064016106da565b8115806120645750601082145b8061206f5750602082145b8061207a5750603082145b6120e0576040517f08c379a000000000000000000000000000000000000000000000000000000000815260206004820152601a60248201527f506f6f6c4c6f6769633a20494e56414c49445f534944455f494e00000000000060448201526064016106da565b8015806120ed5750601081145b806120f85750602081145b806121035750603081145b612169576040517f08c379a000000000000000000000000000000000000000000000000000000000815260206004820152601b60248201527f506f6f6c4c6f6769633a20494e56414c49445f534944455f4f5554000000000060448201526064016106da565b600060405180606001604052806121838860400151613965565b8152600080547bffffffffffffffffffffffffffffffffffffffffffffffffffffffff6401000000009182900481166020850152600154919091041660409092019190915290915080806121d989858888613cc7565b60408b0152865160a08d0151939650919450925083900382900390156122b25760005463ffffffff90811642031680156122b057600061221d828d60a00151613d9f565b90506000612235868368010000000000000000613dcc565b9050600061224d868468010000000000000000613dcc565b90508682108061225c57508581105b156122ac5761226c826001613e2a565b9650612279816001613e2a565b600080547fffffffffffffffffffffffffffffffffffffffffffffffffffffffff00000000164263ffffffff1617905595505b5050505b505b60c08a0151156123c85760008284116122cd578383036122d1565b8284035b905060018111156123c65785516001547fffffffffffffffffffffffffffffffffffffffffffffffffffffffffffffffff9092019163fffffffe908116429091160363ffffffff1680156123c357600061233660018f60c00151901c84888a01613dcc565b905060006123448383613d9f565b9050600185901c61235f818368010000000000000000613dcc565b80820391146123bf578789111561237e57978890039796870196612388565b9788019796879003965b6001805463ffffffff8082168701167fffffffffffffffffffffffffffffffffffffffffffffffffffffffff000000009091161790555b5050505b50505b505b7f00000000000000000000000000000000000000000000000000000000000000001561246b5760007f0000000000000000000000000000000000000000000000000000000000000000828486896000015103030381612429576124296154ef565b0490508015612469576124618b604001517f000000000000000000000000000000000000000000000000000000000000000083612f0c565b855181900386525b505b506000886040015173ffffffffffffffffffffffffffffffffffffffff1663dc0192e8604051806080016040528087815260200188600001518152602001868152602001858152508b606001516040518363ffffffff1660e01b81526004016124d5929190615545565b606060405180830381865afa1580156124f2573d6000803e3d6000fd5b505050506040513d601f19601f820116820180604052508101906125169190615585565b90507bffffffffffffffffffffffffffffffffffffffffffffffffffffffff8016816020015111156125a4576040517f08c379a000000000000000000000000000000000000000000000000000000000815260206004820152601c60248201527f506f6f6c4c6f6769633a205354415445315f4f564552464c4f575f410000000060448201526064016106da565b60408101517bffffffffffffffffffffffffffffffffffffffffffffffffffffffff101561262e576040517f08c379a000000000000000000000000000000000000000000000000000000000815260206004820152601c60248201527f506f6f6c4c6f6769633a205354415445315f4f564552464c4f575f420000000060448201526064016106da565b60008061263b868461390b565b9092509050886126d0578482101580156126555750838110155b6126bb576040517f08c379a000000000000000000000000000000000000000000000000000000000815260206004820152601b60248201527f506f6f6c4c6f6769633a20494e56414c49445f5354415445315f52000000000060448201526064016106da565b865183516126c99190615532565b8a5261298e565b82518751101561273c576040517f08c379a000000000000000000000000000000000000000000000000000000000815260206004820152601c60248201527f506f6f6c4c6f6769633a20494e56414c49445f5354415445315f4e520000000060448201526064016106da565b60006127478a613e39565b905060108a036127d657848210156127bb576040517f08c379a000000000000000000000000000000000000000000000000000000000815260206004820152601b60248201527f506f6f6c4c6f6769633a20494e56414c49445f5354415445315f41000000000060448201526064016106da565b6127cf816127c98589615532565b88613dcc565b8b5261291d565b85831015612840576040517f08c379a000000000000000000000000000000000000000000000000000000000815260206004820152601c60248201527f506f6f6c4c6f6769633a20494e56414c49445f5354415445315f4e410000000060448201526064016106da565b60208a0361285c576127cf816128568488615532565b87613dcc565b848210156128c6576040517f08c379a000000000000000000000000000000000000000000000000000000000815260206004820152601c60248201527f506f6f6c4c6f6769633a20494e56414c49445f5354415445315f4e420000000060448201526064016106da565b600085878a600001516128d99190615532565b6128e39190615532565b90506000838587600001516128f89190615532565b6129029190615532565b9050612918836129128385615532565b84613dcc565b8d5250505b8a5181036103e8111561298c576040517f08c379a000000000000000000000000000000000000000000000000000000000815260206004820152601960248201527f506f6f6c4c6f6769633a204d494e494d554d5f535550504c590000000000000060448201526064016106da565b505b876129ab57825187516129a19190615532565b60208b0152612bf3565b60308803612a86576000848689600001516129c69190615532565b6129d09190615532565b90506000828486600001516129e59190615532565b6129ef9190615532565b90506103e8811015612a5d576040517f08c379a000000000000000000000000000000000000000000000000000000000815260206004820152601c60248201527f506f6f6c4c6f6769633a204d494e494d554d5f524553455256455f430000000060448201526064016106da565b612a79612a698b613e39565b612a738484615532565b84613eb4565b60208d015250612bf39050565b60108803612b20576103e8821015612afa576040517f08c379a000000000000000000000000000000000000000000000000000000000815260206004820152601c60248201527f506f6f6c4c6f6769633a204d494e494d554d5f524553455256455f410000000060448201526064016106da565b612b16612b0689613e39565b612b108785615532565b87613eb4565b60208b0152612bae565b6103e8811015612b8c576040517f08c379a000000000000000000000000000000000000000000000000000000000815260206004820152601c60248201527f506f6f6c4c6f6769633a204d494e494d554d5f524553455256455f420000000060448201526064016106da565b612ba8612b9889613e39565b612ba28684615532565b86613eb4565b60208b01525b7001000000000000000000000000000000008c610140015114612bf357612bf08a600001517001000000000000000000000000000000008e6101400151613dcc565b8a525b505060208101516000805463ffffffff9081166401000000007bffffffffffffffffffffffffffffffffffffffffffffffffffffffff948516810291909117909255604090930151600180549094169216021790555094979650505050505050565b6000612c6282601461544c565b83511015612ccc576040517f08c379a000000000000000000000000000000000000000000000000000000000815260206004820152601560248201527f746f416464726573735f6f75744f66426f756e6473000000000000000000000060448201526064016106da565b5001602001516c01000000000000000000000000900490565b6040805173ffffffffffffffffffffffffffffffffffffffff85811660248301528481166044830152606480830185905283518084039091018152608490920183526020820180517bffffffffffffffffffffffffffffffffffffffffffffffffffffffff167f23b872dd000000000000000000000000000000000000000000000000000000001790529151600092839290881691612d8491906155c1565b6000604051808303816000865af19150503d8060008114612dc1576040519150601f19603f3d011682016040523d82523d6000602084013e612dc6565b606091505b5091509150818015612df0575080511580612df0575080806020019051810190612df091906155dd565b612e7c576040517f08c379a000000000000000000000000000000000000000000000000000000000815260206004820152603160248201527f5472616e7366657248656c7065723a3a7472616e7366657246726f6d3a20747260448201527f616e7366657246726f6d206661696c656400000000000000000000000000000060648201526084016106da565b505050505050565b6000428311612e94575080612f05565b60e0840151428403908110612ead576000915050612f05565b6000818660e00151039050856101000151811015612edf5785610100015181850281612edb57612edb6154ef565b0493505b612f0084876101200151700100000000000000000000000000000000613eb4565b925050505b9392505050565b6040805173ffffffffffffffffffffffffffffffffffffffff8481166024830152604480830185905283518084039091018152606490920183526020820180517bffffffffffffffffffffffffffffffffffffffffffffffffffffffff167fa9059cbb000000000000000000000000000000000000000000000000000000001790529151600092839290871691612fa391906155c1565b6000604051808303816000865af19150503d8060008114612fe0576040519150601f19603f3d011682016040523d82523d6000602084013e612fe5565b606091505b509150915081801561300f57508051158061300f57508080602001905181019061300f91906155dd565b61309b576040517f08c379a000000000000000000000000000000000000000000000000000000000815260206004820152602d60248201527f5472616e7366657248656c7065723a3a736166655472616e736665723a20747260448201527f616e73666572206661696c65640000000000000000000000000000000000000060648201526084016106da565b5050505050565b60408051600481526024810182526020810180517bffffffffffffffffffffffffffffffffffffffffffffffffffffffff167f3850c7bd000000000000000000000000000000000000000000000000000000001790529051600091908290819073ffffffffffffffffffffffffffffffffffffffff8616906131259085906155c1565b600060405180830381855afa9150503d8060008114613160576040519150601f19603f3d011682016040523d82523d6000602084013e613165565b606091505b5090925090508161317857805160208201fd5b60200151949350505050565b6000808263ffffffff166000036131f7576040517f08c379a000000000000000000000000000000000000000000000000000000000815260206004820152600260248201527f425000000000000000000000000000000000000000000000000000000000000060448201526064016106da565b604080516002808252606082018352600092602083019080368337019050509050838160008151811061322c5761322c6155ff565b602002602001019063ffffffff16908163ffffffff168152505060008160018151811061325b5761325b6155ff565b602002602001019063ffffffff16908163ffffffff16815250506000808673ffffffffffffffffffffffffffffffffffffffff1663883bdbfd846040518263ffffffff1660e01b81526004016132b1919061562e565b600060405180830381865afa1580156132ce573d6000803e3d6000fd5b505050506040513d6000823e601f3d9081017fffffffffffffffffffffffffffffffffffffffffffffffffffffffffffffffe016820160405261331491908101906156dc565b9150915060008260008151811061332d5761332d6155ff565b602002602001015183600181518110613348576133486155ff565b602002602001015161335a919061579e565b9050600082600081518110613371576133716155ff565b60200260200101518360018151811061338c5761338c6155ff565b602002602001015161339e91906157e3565b90506133b063ffffffff891683615817565b965060008260060b1280156133d657506133d063ffffffff89168361588b565b60060b15155b156133e957866133e5816158ad565b9750505b600061340f73ffffffffffffffffffffffffffffffffffffffff63ffffffff8b1661590a565b905061343977ffffffffffffffffffffffffffffffffffffffff00000000602084901b168261594d565b96505050505050509250929050565b60008060008360020b1261345f578260020b613467565b8260020b6000035b9050620d89e88111156134a6576040517f2bc80f3a00000000000000000000000000000000000000000000000000000000815260040160405180910390fd5b6000816001166000036134ca577001000000000000000000000000000000006134dc565b6ffffcb933bd6fad37aa2d162d1a5940015b70ffffffffffffffffffffffffffffffffff1690506002821615613510576ffff97272373d413259a46990580e213a0260801c5b600482161561352f576ffff2e50f5f656932ef12357cf3c7fdcc0260801c5b600882161561354e576fffe5caca7e10e4e61c3624eaa0941cd00260801c5b601082161561356d576fffcb9843d60f6159c9db58835c9266440260801c5b602082161561358c576fff973b41fa98c081472e6896dfb254c00260801c5b60408216156135ab576fff2ea16466c96a3843ec78b326b528610260801c5b60808216156135ca576ffe5dee046a99a2a811c461f1969c30530260801c5b6101008216156135ea576ffcbe86c7900a88aedcffc83b479aa3a40260801c5b61020082161561360a576ff987a7253ac413176f2b074cf7815e540260801c5b61040082161561362a576ff3392b0822b70005940c7a398e4b70f30260801c5b61080082161561364a576fe7159475a2c29b7443b29c7fa6e889d90260801c5b61100082161561366a576fd097f3bdfd2022b8845ad8f792aa58250260801c5b61200082161561368a576fa9f746462d870fdf8a65dc1f90e061e50260801c5b6140008216156136aa576f70d869a156d2a1b890bb3df62baf32f70260801c5b6180008216156136ca576f31be135f97d08fd981231505542fcfa60260801c5b620100008216156136eb576f09aa508b5b7a84e1c677de54f3e99bc90260801c5b6202000082161561370b576e5d6af8dedb81196699c329225ee6040260801c5b6204000082161561372a576d2216e584f5fa1ea926041bedfe980260801c5b62080000821615613747576b048a170391f7dc42444e8fa20260801c5b60008460020b131561378657807fffffffffffffffffffffffffffffffffffffffffffffffffffffffffffffffff81613782576137826154ef565b0490505b64010000000081061561379a57600161379d565b60005b60ff16602082901c0192505050919050565b60008073ffffffffffffffffffffffffffffffffffffffff84166137df576137d683611045565b9150915061386f565b6040517f7a33e3b00000000000000000000000000000000000000000000000000000000081526004810184905273ffffffffffffffffffffffffffffffffffffffff851690637a33e3b09060240160408051808303816000875af115801561384b573d6000803e3d6000fd5b505050506040513d601f19601f820116820180604052508101906137d69190615984565b9250929050565b6080820151600090828110801561388b579092905b6138b46138aa7001000000000000000000000000000000008685613eb4565b8660600151613f84565b9250826000036138d0576138cd8483876060015161400b565b92505b801561390357613900837fffffffffffffffffffffffffffffffffffffffffffffffffffffffffffffffff61551e565b92505b505092915050565b6000806139218484602001518560000151614055565b915061395c613950857fffffffffffffffffffffffffffffffffffffffffffffffffffffffffffffffff61551e565b60408501518551614055565b90509250929050565b6040517f70a0823100000000000000000000000000000000000000000000000000000000815230600482015260009073ffffffffffffffffffffffffffffffffffffffff8316906370a08231906024015b602060405180830381865afa1580156139d3573d6000803e3d6000fd5b505050506040513d601f19601f820116820180604052508101906102c39190615404565b600080808084613a078789615532565b613a119190615532565b60a089015190915015613ab55760008054613a329063ffffffff16426159a8565b63ffffffff1690508015613ab3576000613a50828b60a00151613d9f565b90506000613a68898368010000000000000000613dcc565b90506000613a80898468010000000000000000613dcc565b905089821080613a8f57508881105b15613aaf57613a9f826001613e2a565b9950613aac816001613e2a565b98505b5050505b505b60c088015115613bc0576000858711613ad757613ad28787615532565b613ae1565b613ae18688615532565b90506001811115613bbe57613af5816159c5565b600154909150600090613b129063fffffffe9081169042166159a8565b63ffffffff1690508015613bbc5760c08a0151600090613b3f9060011c8b613b3a8b8d61544c565b613dcc565b90506000613b4d8383613d9f565b9050600184901c613b68818368010000000000000000613dcc565b613b729082615532565b90508015613bb857898b1115613b9f57613b8c818b61544c565b9950613b98818c615532565b9a50613bb8565b613ba9818c61544c565b9a50613bb5818b615532565b99505b5050505b505b505b8815613c0a576000898287613bd58a8c615532565b613bdf9190615532565b613be99190615532565b613bf3919061551e565b90508015613c0857613c058189615532565b97505b505b5094979396509194509192505050565b6000818310613c295781612f05565b5090919050565b6040517fbd85b0390000000000000000000000000000000000000000000000000000000081523060a083901b17600482015260009073ffffffffffffffffffffffffffffffffffffffff84169063bd85b03990602401602060405180830381865afa158015613ca3573d6000803e3d6000fd5b505050506040513d601f19601f82011682018060405250810190612f059190615404565b600080600080600080613ce58a600001518b6020015160001c6137af565b9150915080821115613cf357905b6010871480613d025750602088145b15613d2a57613d148a82945084613876565b9550613d20868a61390b565b9095509350613d92565b6020871480613d395750601088145b15613d4b57613d148a83945084613876565b613d588a83945084613876565b9550613d64868a61390b565b9095509350848411881503613d9257613d808a82945084613876565b9550613d8c868a61390b565b90955093505b5050945094509450949050565b600080613dc1613db384604087901b61551e565b613dbc906159fa565b6140b9565b600f0b949350505050565b6000613dd9848484613eb4565b905060008280613deb57613deb6154ef565b8486091115612f05577fffffffffffffffffffffffffffffffffffffffffffffffffffffffffffffffff8110613e2057600080fd5b6001019392505050565b6000818311613c295781612f05565b6040517fbd85b0390000000000000000000000000000000000000000000000000000000081523060a083901b1760048201526000907f000000000000000000000000000000000000000000000000000000000000000073ffffffffffffffffffffffffffffffffffffffff169063bd85b039906024016139b6565b600080807fffffffffffffffffffffffffffffffffffffffffffffffffffffffffffffffff85870985870292508281108382030391505080600003613f0b5760008411613f0057600080fd5b508290049050612f05565b808411613f1757600080fd5b6000848688096000868103871696879004966002600389028118808a02820302808a02820302808a02820302808a02820302808a02820302808a02909103029181900381900460010186841190950394909402919094039290920491909117919091029150509392505050565b6000808260011611613fa757700100000000000000000000000000000000613fa9565b825b9050600182901c91505b81156102c357613fd58384700100000000000000000000000000000000613eb4565b92506001821615613fff57613ffc8184700100000000000000000000000000000000613eb4565b90505b600182901c9150613fb3565b7001000000000000000000000000000000005b8115612f05576000614031828686613eb4565b9050806000036140415750612f05565b90508061404d836159c5565b92505061401e565b60006140738385700100000000000000000000000000000000613eb4565b9050600182901c811115612f0557600061409e84866f40000000000000000000000000000000613eb4565b905060006140ad848584613dcc565b9050612f008185615532565b60006840000000000000000082600f0b126140d357600080fd5b7fffffffffffffffffffffffffffffffffffffffffffffffc0000000000000000082600f0b121561410657506000919050565b6f8000000000000000000000000000000060006780000000000000008416600f0b13156141445770016a09e667f3bcc908b2fb1366ea957d3e0260801c5b60008367400000000000000016600f0b1315614171577001306fe0a31b7152de8d5a46305c85edec0260801c5b60008367200000000000000016600f0b131561419e577001172b83c7d517adcdf7c8c50eb14a791f0260801c5b60008367100000000000000016600f0b13156141cb5770010b5586cf9890f6298b92b71842a983630260801c5b60008367080000000000000016600f0b13156141f8577001059b0d31585743ae7c548eb68ca417fd0260801c5b60008367040000000000000016600f0b131561422557700102c9a3e778060ee6f7caca4f7a29bde80260801c5b60008367020000000000000016600f0b13156142525770010163da9fb33356d84a66ae336dcdfa3f0260801c5b60008367010000000000000016600f0b131561427f57700100b1afa5abcbed6129ab13ec11dc95430260801c5b600083668000000000000016600f0b13156142ab5770010058c86da1c09ea1ff19d294cf2f679b0260801c5b600083664000000000000016600f0b13156142d7577001002c605e2e8cec506d21bfc89a23a00f0260801c5b600083662000000000000016600f0b131561430357700100162f3904051fa128bca9c55c31e5df0260801c5b600083661000000000000016600f0b131561432f577001000b175effdc76ba38e31671ca9397250260801c5b600083660800000000000016600f0b131561435b57700100058ba01fb9f96d6cacd4b180917c3d0260801c5b600083660400000000000016600f0b13156143875770010002c5cc37da9491d0985c348c68e7b30260801c5b600083660200000000000016600f0b13156143b3577001000162e525ee054754457d59952920260260801c5b600083660100000000000016600f0b13156143df5770010000b17255775c040618bf4a4ade83fc0260801c5b6000836580000000000016600f0b131561440a577001000058b91b5bc9ae2eed81e9b7d4cfab0260801c5b6000836540000000000016600f0b131561443557700100002c5c89d5ec6ca4d7c8acc017b7c90260801c5b6000836520000000000016600f0b13156144605770010000162e43f4f831060e02d839a9d16d0260801c5b6000836510000000000016600f0b131561448b57700100000b1721bcfc99d9f890ea069117630260801c5b6000836508000000000016600f0b13156144b65770010000058b90cf1e6d97f9ca14dbcc16280260801c5b6000836504000000000016600f0b13156144e1577001000002c5c863b73f016468f6bac5ca2b0260801c5b6000836502000000000016600f0b131561450c57700100000162e430e5a18f6119e3c02282a50260801c5b6000836501000000000016600f0b1315614537577001000000b1721835514b86e6d96efd1bfe0260801c5b60008364800000000016600f0b131561456157700100000058b90c0b48c6be5df846c5b2ef0260801c5b60008364400000000016600f0b131561458b5770010000002c5c8601cc6b9e94213c72737a0260801c5b60008364200000000016600f0b13156145b5577001000000162e42fff037df38aa2b219f060260801c5b60008364100000000016600f0b13156145df5770010000000b17217fba9c739aa5819f44f90260801c5b60008364080000000016600f0b1315614609577001000000058b90bfcdee5acd3c1cedc8230260801c5b60008364040000000016600f0b131561463357700100000002c5c85fe31f35a6a30da1be500260801c5b60008364020000000016600f0b131561465d5770010000000162e42ff0999ce3541b9fffcf0260801c5b60008364010000000016600f0b131561468757700100000000b17217f80f4ef5aadda455540260801c5b600083638000000016600f0b13156146b05770010000000058b90bfbf8479bd5a81b51ad0260801c5b600083634000000016600f0b13156146d9577001000000002c5c85fdf84bd62ae30a74cc0260801c5b600083632000000016600f0b131561470257700100000000162e42fefb2fed257559bdaa0260801c5b600083631000000016600f0b131561472b577001000000000b17217f7d5a7716bba4a9ae0260801c5b600083630800000016600f0b131561475457700100000000058b90bfbe9ddbac5e109cce0260801c5b600083630400000016600f0b131561477d5770010000000002c5c85fdf4b15de6f17eb0d0260801c5b600083630200000016600f0b13156147a6577001000000000162e42fefa494f1478fde050260801c5b600083630100000016600f0b13156147cf5770010000000000b17217f7d20cf927c8e94c0260801c5b6000836280000016600f0b13156147f7577001000000000058b90bfbe8f71cb4e4b33d0260801c5b6000836240000016600f0b131561481f57700100000000002c5c85fdf477b662b269450260801c5b6000836220000016600f0b13156148475770010000000000162e42fefa3ae53369388c0260801c5b6000836210000016600f0b131561486f57700100000000000b17217f7d1d351a389d400260801c5b6000836208000016600f0b13156148975770010000000000058b90bfbe8e8b2d3d4ede0260801c5b6000836204000016600f0b13156148bf577001000000000002c5c85fdf4741bea6e77e0260801c5b6000836202000016600f0b13156148e757700100000000000162e42fefa39fe95583c20260801c5b6000836201000016600f0b131561490f577001000000000000b17217f7d1cfb72b45e10260801c5b60008361800016600f0b131561493657700100000000000058b90bfbe8e7cc35c3f00260801c5b60008361400016600f0b131561495d5770010000000000002c5c85fdf473e242ea380260801c5b60008361200016600f0b1315614984577001000000000000162e42fefa39f02b772c0260801c5b60008361100016600f0b13156149ab5770010000000000000b17217f7d1cf7d83c1a0260801c5b60008361080016600f0b13156149d2577001000000000000058b90bfbe8e7bdcbe2e0260801c5b60008361040016600f0b13156149f957700100000000000002c5c85fdf473dea871f0260801c5b60008361020016600f0b1315614a205770010000000000000162e42fefa39ef44d910260801c5b60008361010016600f0b1315614a4757700100000000000000b17217f7d1cf79e9490260801c5b600083608016600f0b1315614a6d5770010000000000000058b90bfbe8e7bce5440260801c5b600083604016600f0b1315614a93577001000000000000002c5c85fdf473de6eca0260801c5b600083602016600f0b1315614ab957700100000000000000162e42fefa39ef366f0260801c5b600083601016600f0b1315614adf577001000000000000000b17217f7d1cf79afa0260801c5b600083600816600f0b1315614b0557700100000000000000058b90bfbe8e7bcd6d0260801c5b600083600416600f0b1315614b2b5770010000000000000002c5c85fdf473de6b20260801c5b600083600216600f0b1315614b51577001000000000000000162e42fefa39ef3580260801c5b600083600116600f0b1315614b775770010000000000000000b17217f7d1cf79ab0260801c5b600f83810b60401d603f03900b1c6f7fffffffffffffffffffffffffffffff8111156102c357600080fd5b604051806101400160405280614c3a604051806101600160405280600073ffffffffffffffffffffffffffffffffffffffff16815260200160008019168152602001600073ffffffffffffffffffffffffffffffffffffffff16815260200160008152602001600081526020016000815260200160008152602001600081526020016000815260200160008152602001600081525090565b8152602001614c6360405180606001604052806000815260200160008152602001600081525090565b815260200160008152602001600081526020016000815260200160008152602001600081526020016000815260200160008152602001600081525090565b600060208284031215614cb357600080fd5b81357fffffffff0000000000000000000000000000000000000000000000000000000081168114612f0557600080fd5b805173ffffffffffffffffffffffffffffffffffffffff168252602081015160208301526040810151614d2e604084018273ffffffffffffffffffffffffffffffffffffffff169052565b50606081810151908301526080808201519083015260a0808201519083015260c0808201519083015260e080820151908301526101008082015190830152610120808201519083015261014090810151910152565b61016081016102c38284614ce3565b7f4e487b7100000000000000000000000000000000000000000000000000000000600052604160045260246000fd5b6040516060810167ffffffffffffffff81118282101715614de457614de4614d92565b60405290565b6040516080810167ffffffffffffffff81118282101715614de457614de4614d92565b604051610160810167ffffffffffffffff81118282101715614de457614de4614d92565b604051601f82017fffffffffffffffffffffffffffffffffffffffffffffffffffffffffffffffe016810167ffffffffffffffff81118282101715614e7857614e78614d92565b604052919050565b73ffffffffffffffffffffffffffffffffffffffff81168114611d6c57600080fd5b600082601f830112614eb357600080fd5b813567ffffffffffffffff811115614ecd57614ecd614d92565b614efe60207fffffffffffffffffffffffffffffffffffffffffffffffffffffffffffffffe0601f84011601614e31565b818152846020838601011115614f1357600080fd5b816020850160208301376000918101602001919091529392505050565b600060608284031215614f4257600080fd5b614f4a614dc1565b90508135614f5781614e80565b8152602082013567ffffffffffffffff811115614f7357600080fd5b614f7f84828501614ea2565b6020830152506040820135614f9381614e80565b604082015292915050565b60008060408385031215614fb157600080fd5b823567ffffffffffffffff80821115614fc957600080fd5b9084019060808287031215614fdd57600080fd5b614fe5614dea565b8235815260208301356020820152604083013561500181614e80565b604082015260608301358281111561501857600080fd5b61502488828601614ea2565b6060830152509350602085013591508082111561504057600080fd5b5061504d85828601614f30565b9150509250929050565b60006020828403121561506957600080fd5b5035919050565b600067ffffffffffffffff82111561508a5761508a614d92565b5060051b60200190565b600082601f8301126150a557600080fd5b813560206150ba6150b583615070565b614e31565b82815260059290921b840181019181810190868411156150d957600080fd5b8286015b848110156150f457803583529183019183016150dd565b509695505050505050565b600080600080600060a0868803121561511757600080fd5b853561512281614e80565b9450602086013561513281614e80565b9350604086013567ffffffffffffffff8082111561514f57600080fd5b61515b89838a01615094565b9450606088013591508082111561517157600080fd5b61517d89838a01615094565b9350608088013591508082111561519357600080fd5b506151a088828901614ea2565b9150509295509295909350565b60008082840360808112156151c157600080fd5b60608112156151cf57600080fd5b506151d8614dc1565b83358152602084013560208201526040840135604082015280925050606083013567ffffffffffffffff81111561520e57600080fd5b61504d85828601614f30565b6000806000806080858703121561523057600080fd5b843561523b81614e80565b966020860135965060408601359560600135945092505050565b60006102c082019050615269828451614ce3565b6020838101518051610160850152908101516101808401526040908101516101a08401528301516101c083015260608301516101e0830152608083015161020083015260a083015161022083015260c083015161024083015260e0830151610260830152610100830151610280830152610120909201516102a09091015290565b600080600080600060a0868803121561530257600080fd5b853561530d81614e80565b9450602086013561531d81614e80565b93506040860135925060608601359150608086013567ffffffffffffffff81111561534757600080fd5b6151a088828901614ea2565b805161535e81614e80565b919050565b6000610160828403121561537657600080fd5b61537e614e0d565b61538783615353565b81526020830151602082015261539f60408401615353565b6040820152606083015160608201526080830151608082015260a083015160a082015260c083015160c082015260e083015160e08201526101008084015181830152506101208084015181830152506101408084015181830152508091505092915050565b60006020828403121561541657600080fd5b5051919050565b7f4e487b7100000000000000000000000000000000000000000000000000000000600052601160045260246000fd5b808201808211156102c3576102c361541d565b60005b8381101561547a578181015183820152602001615462565b50506000910152565b6000815180845261549b81602086016020860161545f565b601f017fffffffffffffffffffffffffffffffffffffffffffffffffffffffffffffffe0169290920160200192915050565b6040815260006154e06040830185615483565b90508260208301529392505050565b7f4e487b7100000000000000000000000000000000000000000000000000000000600052601260045260246000fd5b60008261552d5761552d6154ef565b500490565b818103818111156102c3576102c361541d565b8251815260208301516020820152604083015160408201526060830151606082015260a06080820152600061557d60a0830184615483565b949350505050565b60006060828403121561559757600080fd5b61559f614dc1565b8251815260208301516020820152604083015160408201528091505092915050565b600082516155d381846020870161545f565b9190910192915050565b6000602082840312156155ef57600080fd5b81518015158114612f0557600080fd5b7f4e487b7100000000000000000000000000000000000000000000000000000000600052603260045260246000fd5b6020808252825182820181905260009190848201906040850190845b8181101561566c57835163ffffffff168352928401929184019160010161564a565b50909695505050505050565b600082601f83011261568957600080fd5b815160206156996150b583615070565b82815260059290921b840181019181810190868411156156b857600080fd5b8286015b848110156150f45780516156cf81614e80565b83529183019183016156bc565b600080604083850312156156ef57600080fd5b825167ffffffffffffffff8082111561570757600080fd5b818501915085601f83011261571b57600080fd5b8151602061572b6150b583615070565b82815260059290921b8401810191818101908984111561574a57600080fd5b948201945b838610156157785785518060060b81146157695760008081fd5b8252948201949082019061574f565b9188015191965090935050508082111561579157600080fd5b5061504d85828601615678565b600682810b9082900b037fffffffffffffffffffffffffffffffffffffffffffffffffff800000000000008112667fffffffffffff821317156102c3576102c361541d565b73ffffffffffffffffffffffffffffffffffffffff8281168282160390808211156158105761581061541d565b5092915050565b60008160060b8360060b8061582e5761582e6154ef565b7fffffffffffffffffffffffffffffffffffffffffffffffffffffffffffffffff81147fffffffffffffffffffffffffffffffffffffffffffffffffff80000000000000831416156158825761588261541d565b90059392505050565b60008260060b8061589e5761589e6154ef565b808360060b0791505092915050565b60008160020b7fffffffffffffffffffffffffffffffffffffffffffffffffffffffffff80000081036158e2576158e261541d565b7fffffffffffffffffffffffffffffffffffffffffffffffffffffffffffffffff0192915050565b77ffffffffffffffffffffffffffffffffffffffffffffffff8281168282168181028316929181158285048214176159445761594461541d565b50505092915050565b600077ffffffffffffffffffffffffffffffffffffffffffffffff80841680615978576159786154ef565b92169190910492915050565b6000806040838503121561599757600080fd5b505080516020909101519092909150565b63ffffffff8281168282160390808211156158105761581061541d565b6000816159d4576159d461541d565b507fffffffffffffffffffffffffffffffffffffffffffffffffffffffffffffffff0190565b600081600f0b7fffffffffffffffffffffffffffffffff800000000000000000000000000000008103615a2f57615a2f61541d565b6000039291505056fea164736f6c6343000814000a",
    "linkReferences": {},
    "deployedLinkReferences": {}
}